{
  "contractName": "MockedOrders",
  "abi": [
    {
      "anonymous": false,
      "inputs": [
        {
          "indexed": false,
          "internalType": "string",
          "name": "id",
          "type": "string"
        },
        {
          "indexed": false,
          "internalType": "uint256",
          "name": "date",
          "type": "uint256"
        }
      ],
      "name": "OrderDelivered",
      "type": "event"
    },
    {
      "anonymous": false,
      "inputs": [
        {
          "indexed": false,
          "internalType": "string",
          "name": "id",
          "type": "string"
        },
        {
          "indexed": false,
          "internalType": "address",
          "name": "paidAddress",
          "type": "address"
        },
        {
          "indexed": false,
          "internalType": "uint256",
          "name": "paidAmount",
          "type": "uint256"
        },
        {
          "indexed": false,
          "internalType": "uint256",
          "name": "date",
          "type": "uint256"
        }
      ],
      "name": "OrderPaid",
      "type": "event"
    },
    {
      "anonymous": false,
      "inputs": [
        {
          "indexed": false,
          "internalType": "string",
          "name": "id",
          "type": "string"
        },
        {
          "indexed": false,
          "internalType": "uint256",
          "name": "date",
          "type": "uint256"
        }
      ],
      "name": "OrderRefunded",
      "type": "event"
    },
    {
      "constant": false,
      "inputs": [
        {
          "internalType": "string",
          "name": "id",
          "type": "string"
        },
        {
          "internalType": "uint256",
          "name": "totalPrice",
          "type": "uint256"
        },
        {
          "internalType": "uint256",
          "name": "deliveryDate",
          "type": "uint256"
        }
      ],
      "name": "add",
      "outputs": [],
      "payable": false,
      "stateMutability": "nonpayable",
      "type": "function"
    },
    {
      "constant": false,
      "inputs": [
        {
          "internalType": "string",
          "name": "id",
          "type": "string"
        }
      ],
      "name": "deliver",
      "outputs": [],
      "payable": false,
      "stateMutability": "nonpayable",
      "type": "function"
    },
    {
      "constant": true,
      "inputs": [
        {
          "internalType": "string",
          "name": "id",
          "type": "string"
        }
      ],
      "name": "get",
      "outputs": [
        {
          "internalType": "uint8",
          "name": "status",
          "type": "uint8"
        },
        {
          "internalType": "uint256",
          "name": "createdDate",
          "type": "uint256"
        },
        {
          "internalType": "uint256",
          "name": "deliveryDate",
          "type": "uint256"
        },
        {
          "internalType": "uint256",
          "name": "deliveredDate",
          "type": "uint256"
        }
      ],
      "payable": false,
      "stateMutability": "view",
      "type": "function"
    },
    {
      "constant": false,
      "inputs": [
        {
          "internalType": "string",
          "name": "id",
          "type": "string"
        }
      ],
      "name": "pay",
      "outputs": [],
      "payable": true,
      "stateMutability": "payable",
      "type": "function"
    },
    {
      "constant": false,
      "inputs": [
        {
          "internalType": "string",
          "name": "id",
          "type": "string"
        }
      ],
      "name": "refund",
      "outputs": [],
      "payable": false,
      "stateMutability": "nonpayable",
      "type": "function"
    },
    {
      "constant": false,
      "inputs": [
        {
          "internalType": "uint256",
          "name": "timestamp",
          "type": "uint256"
        }
      ],
      "name": "mockTimestamp",
      "outputs": [],
      "payable": false,
      "stateMutability": "nonpayable",
      "type": "function"
    }
  ],
  "bytecode": "0x6080604052336000806101000a81548173ffffffffffffffffffffffffffffffffffffffff021916908373ffffffffffffffffffffffffffffffffffffffff160217905550611704806100536000396000f3fe6080604052600436106100555760003560e01c80632b66d72e1461005a578063693ec85e1461011557806391098ee41461020c578063c8616da5146102d4578063d5d2bdc2146103b0578063fe5f2e88146103eb575b600080fd5b6101136004803603602081101561007057600080fd5b810190808035906020019064010000000081111561008d57600080fd5b82018360208201111561009f57600080fd5b803590602001918460018302840111640100000000831117156100c157600080fd5b91908080601f016020809104026020016040519081016040528093929190818152602001838380828437600081840152601f19601f8201169050808301925050505050505091929192905050506104b3565b005b34801561012157600080fd5b506101db6004803603602081101561013857600080fd5b810190808035906020019064010000000081111561015557600080fd5b82018360208201111561016757600080fd5b8035906020019184600183028401116401000000008311171561018957600080fd5b91908080601f016020809104026020016040519081016040528093929190818152602001838380828437600081840152601f19601f820116905080830192505050505050509192919290505050610912565b604051808560ff1660ff16815260200184815260200183815260200182815260200194505050505060405180910390f35b34801561021857600080fd5b506102d26004803603602081101561022f57600080fd5b810190808035906020019064010000000081111561024c57600080fd5b82018360208201111561025e57600080fd5b8035906020019184600183028401116401000000008311171561028057600080fd5b91908080601f016020809104026020016040519081016040528093929190818152602001838380828437600081840152601f19601f820116905080830192505050505050509192919290505050610b36565b005b3480156102e057600080fd5b506103ae600480360360608110156102f757600080fd5b810190808035906020019064010000000081111561031457600080fd5b82018360208201111561032657600080fd5b8035906020019184600183028401116401000000008311171561034857600080fd5b91908080601f016020809104026020016040519081016040528093929190818152602001838380828437600081840152601f19601f8201169050808301925050505050505091929192908035906020019092919080359060200190929190505050610e3b565b005b3480156103bc57600080fd5b506103e9600480360360208110156103d357600080fd5b810190808035906020019092919050505061101d565b005b3480156103f757600080fd5b506104b16004803603602081101561040e57600080fd5b810190808035906020019064010000000081111561042b57600080fd5b82018360208201111561043d57600080fd5b8035906020019184600183028401116401000000008311171561045f57600080fd5b91908080601f016020809104026020016040519081016040528093929190818152602001838380828437600081840152601f19601f820116905080830192505050505050509192919290505050611027565b005b60006001826040518082805190602001908083835b602083106104eb57805182526020820191506020810190506020830392506104c8565b6001836020036101000a03801982511681845116808217855250505050505090500191505090815260200160405180910390209050600081600401541161059a576040517f08c379a00000000000000000000000000000000000000000000000000000000081526004018080602001828103825260118152602001807f4f726465722069736e277420666f756e6400000000000000000000000000000081525060200191505060405180910390fd5b60006002836040518082805190602001908083835b602083106105d257805182526020820191506020810190506020830392506105af565b6001836020036101000a038019825116818451168082178552505050505050905001915050908152602001604051809103902090506000816002015414610681576040517f08c379a00000000000000000000000000000000000000000000000000000000081526004018080602001828103825260178152602001807f546865206f7264657220686173206265656e207061696400000000000000000081525060200191505060405180910390fd5b816001015434146106dd576040517f08c379a000000000000000000000000000000000000000000000000000000000815260040180806020018281038252603a815260200180611696603a913960400191505060405180910390fd5b60018260030160006101000a81548160ff021916908360038111156106fe57fe5b021790555060405180608001604052808481526020013373ffffffffffffffffffffffffffffffffffffffff168152602001610738611546565b815260200160008152506002846040518082805190602001908083835b602083106107785780518252602082019150602081019050602083039250610755565b6001836020036101000a038019825116818451168082178552505050505050905001915050908152602001604051809103902060008201518160000190805190602001906107c7929190611550565b5060208201518160010160006101000a81548173ffffffffffffffffffffffffffffffffffffffff021916908373ffffffffffffffffffffffffffffffffffffffff16021790555060408201518160020155606082015181600301559050507ff92264f09d0c6721b3a515bb9ec4f16b3474b4fe0569a295b0de53b65fc43fe9833334610852611546565b60405180806020018573ffffffffffffffffffffffffffffffffffffffff1673ffffffffffffffffffffffffffffffffffffffff168152602001848152602001838152602001828103825286818151815260200191508051906020019080838360005b838110156108d05780820151818401526020810190506108b5565b50505050905090810190601f1680156108fd5780820380516001836020036101000a031916815260200191505b509550505050505060405180910390a1505050565b6000806000806109206115d0565b6001866040518082805190602001908083835b602083106109565780518252602082019150602081019050602083039250610933565b6001836020036101000a03801982511681845116808217855250505050505090500191505090815260200160405180910390206040518060c0016040529081600082018054600181600116156101000203166002900480601f016020809104026020016040519081016040528092919081815260200182805460018160011615610100020316600290048015610a2d5780601f10610a0257610100808354040283529160200191610a2d565b820191906000526020600020905b815481529060010190602001808311610a1057829003601f168201915b5050505050815260200160018201548152602001600282015481526020016003820160009054906101000a900460ff166003811115610a6857fe5b6003811115610a7357fe5b81526020016004820154815260200160058201548152505090506000816080015111610b07576040517f08c379a00000000000000000000000000000000000000000000000000000000081526004018080602001828103825260118152602001807f4f726465722069736e277420666f756e6400000000000000000000000000000081525060200191505060405180910390fd5b80606001516003811115610b1757fe5b816080015182604001518360a001519450945094509450509193509193565b6000809054906101000a900473ffffffffffffffffffffffffffffffffffffffff1673ffffffffffffffffffffffffffffffffffffffff163373ffffffffffffffffffffffffffffffffffffffff1614610bf8576040517f08c379a000000000000000000000000000000000000000000000000000000000815260040180806020018281038252601b8152602001807f5468652073656e6465722069736e277420617574686f72697a6564000000000081525060200191505060405180910390fd5b60006001826040518082805190602001908083835b60208310610c305780518252602082019150602081019050602083039250610c0d565b6001836020036101000a038019825116818451168082178552505050505050905001915050908152602001604051809103902090506000816004015411610cdf576040517f08c379a00000000000000000000000000000000000000000000000000000000081526004018080602001828103825260118152602001807f4f726465722069736e277420666f756e6400000000000000000000000000000081525060200191505060405180910390fd5b6000816005015414610d59576040517f08c379a000000000000000000000000000000000000000000000000000000000815260040180806020018281038252601c8152602001807f546865206f7264657220686173206265656e2064656c6976657265640000000081525060200191505060405180910390fd5b60028160030160006101000a81548160ff02191690836003811115610d7a57fe5b0217905550610d87611546565b81600501819055507ff338b2eb9060a1665f36842697bea4d2c1331ecd598e3463b201fc6bdecb43028282600501546040518080602001838152602001828103825284818151815260200191508051906020019080838360005b83811015610dfc578082015181840152602081019050610de1565b50505050905090810190601f168015610e295780820380516001836020036101000a031916815260200191505b50935050505060405180910390a15050565b6000809054906101000a900473ffffffffffffffffffffffffffffffffffffffff1673ffffffffffffffffffffffffffffffffffffffff163373ffffffffffffffffffffffffffffffffffffffff1614610efd576040517f08c379a000000000000000000000000000000000000000000000000000000000815260040180806020018281038252601b8152602001807f5468652073656e6465722069736e277420617574686f72697a6564000000000081525060200191505060405180910390fd5b6040518060c0016040528084815260200183815260200182815260200160006003811115610f2757fe5b8152602001610f34611546565b815260200160008152506001846040518082805190602001908083835b60208310610f745780518252602082019150602081019050602083039250610f51565b6001836020036101000a03801982511681845116808217855250505050505090500191505090815260200160405180910390206000820151816000019080519060200190610fc3929190611550565b50602082015181600101556040820151816002015560608201518160030160006101000a81548160ff02191690836003811115610ffc57fe5b02179055506080820151816004015560a08201518160050155905050505050565b8060038190555050565b60006001826040518082805190602001908083835b6020831061105f578051825260208201915060208101905060208303925061103c565b6001836020036101000a03801982511681845116808217855250505050505090500191505090815260200160405180910390209050600081600401541161110e576040517f08c379a00000000000000000000000000000000000000000000000000000000081526004018080602001828103825260118152602001807f4f726465722069736e277420666f756e6400000000000000000000000000000081525060200191505060405180910390fd5b60006002836040518082805190602001908083835b602083106111465780518252602082019150602081019050602083039250611123565b6001836020036101000a0380198251168184511680821785525050505050509050019150509081526020016040518091039020905060008160020154116111f5576040517f08c379a000000000000000000000000000000000000000000000000000000000815260040180806020018281038252601a8152602001807f546865206f72646572206861736e2774206265656e207061696400000000000081525060200191505060405180910390fd5b600082600501541461126f576040517f08c379a000000000000000000000000000000000000000000000000000000000815260040180806020018281038252601c8152602001807f546865206f7264657220686173206265656e2064656c6976657265640000000081525060200191505060405180910390fd5b60008160030154146112e9576040517f08c379a000000000000000000000000000000000000000000000000000000000815260040180806020018281038252601b8152602001807f546865206f7264657220686173206265656e20726566756e646564000000000081525060200191505060405180910390fd5b3373ffffffffffffffffffffffffffffffffffffffff168160010160009054906101000a900473ffffffffffffffffffffffffffffffffffffffff1673ffffffffffffffffffffffffffffffffffffffff1614611391576040517f08c379a000000000000000000000000000000000000000000000000000000000815260040180806020018281038252603e815260200180611658603e913960400191505060405180910390fd5b816002015461139e611546565b116113f4576040517f08c379a00000000000000000000000000000000000000000000000000000000081526004018080602001828103825260218152602001806116376021913960400191505060405180910390fd5b8060010160009054906101000a900473ffffffffffffffffffffffffffffffffffffffff1673ffffffffffffffffffffffffffffffffffffffff166108fc83600101549081150290604051600060405180830381858888f19350505050158015611462573d6000803e3d6000fd5b5060038260030160006101000a81548160ff0219169083600381111561148457fe5b0217905550611491611546565b81600301819055507f983d7f80610c725b42b5c557052c0b3eae91b7a5cf0206967fd5f3e5120b836b8382600301546040518080602001838152602001828103825284818151815260200191508051906020019080838360005b838110156115065780820151818401526020810190506114eb565b50505050905090810190601f1680156115335780820380516001836020036101000a031916815260200191505b50935050505060405180910390a1505050565b6000600354905090565b828054600181600116156101000203166002900490600052602060002090601f016020900481019282601f1061159157805160ff19168380011785556115bf565b828001600101855582156115bf579182015b828111156115be5782518255916020019190600101906115a3565b5b5090506115cc9190611611565b5090565b6040518060c00160405280606081526020016000815260200160008152602001600060038111156115fd57fe5b815260200160008152602001600081525090565b61163391905b8082111561162f576000816000905550600101611617565b5090565b9056fe5468652064656c69766572792064617465206973206e6f74206f76657220796574546865206275796572206164647265737320646f65736e2774206d61746368207468652061646472657373206f6620746865207472616e73616374696f6e546865206f7264657220707269636520646f65736e2774206d61746368207468652076616c7565206f6620746865207472616e73616374696f6ea265627a7a7231582046558b69fcb5fc2594a10ab613aec9849d66c5684e95c5beaf6a106bf26f1a0464736f6c63430005100032",
  "source": "pragma solidity >=0.4.22 <0.7.0;\n\nimport \"./Orders.sol\";\n\ncontract MockedOrders is Orders {\n    uint256 fakeTimestamp;\n    \n    function getTime() internal view returns (uint256) {\n        return fakeTimestamp;\n    }\n\n    function mockTimestamp(uint256 timestamp) public {\n        fakeTimestamp = timestamp;\n    }\n}\n",
  "sourcePath": "/Users/ahmetkucukoglu/Documents/order-blockchain-app/backend/contracts/MockedOrders.sol",
  "compiler": {
    "name": "solc",
    "version": "0.5.16+commit.9c3226ce.Emscripten.clang"
  },
  "schemaVersion": "3.3.4",
  "updatedAt": "2021-05-14T14:11:26.191Z",
  "networkType": "ethereum",
  "devdoc": {
    "methods": {}
  },
  "userdoc": {
    "methods": {}
  }
}