{
  "contractName": "Orders",
  "abi": [
    {
      "inputs": [],
      "payable": false,
      "stateMutability": "nonpayable",
      "type": "constructor"
    },
    {
      "anonymous": false,
      "inputs": [
        {
          "indexed": false,
          "internalType": "string",
          "name": "id",
          "type": "string"
        },
        {
          "indexed": false,
          "internalType": "uint256",
          "name": "date",
          "type": "uint256"
        }
      ],
      "name": "OrderDelivered",
      "type": "event"
    },
    {
      "anonymous": false,
      "inputs": [
        {
          "indexed": false,
          "internalType": "string",
          "name": "id",
          "type": "string"
        },
        {
          "indexed": false,
          "internalType": "address",
          "name": "paidAddress",
          "type": "address"
        },
        {
          "indexed": false,
          "internalType": "uint256",
          "name": "paidAmount",
          "type": "uint256"
        },
        {
          "indexed": false,
          "internalType": "uint256",
          "name": "date",
          "type": "uint256"
        }
      ],
      "name": "OrderPaid",
      "type": "event"
    },
    {
      "anonymous": false,
      "inputs": [
        {
          "indexed": false,
          "internalType": "string",
          "name": "id",
          "type": "string"
        },
        {
          "indexed": false,
          "internalType": "uint256",
          "name": "date",
          "type": "uint256"
        }
      ],
      "name": "OrderRefunded",
      "type": "event"
    },
    {
      "constant": false,
      "inputs": [
        {
          "internalType": "string",
          "name": "id",
          "type": "string"
        },
        {
          "internalType": "uint256",
          "name": "totalPrice",
          "type": "uint256"
        },
        {
          "internalType": "uint256",
          "name": "deliveryDate",
          "type": "uint256"
        }
      ],
      "name": "add",
      "outputs": [],
      "payable": false,
      "stateMutability": "nonpayable",
      "type": "function"
    },
    {
      "constant": true,
      "inputs": [
        {
          "internalType": "string",
          "name": "id",
          "type": "string"
        }
      ],
      "name": "get",
      "outputs": [
        {
          "internalType": "uint8",
          "name": "status",
          "type": "uint8"
        },
        {
          "internalType": "uint256",
          "name": "createdDate",
          "type": "uint256"
        },
        {
          "internalType": "uint256",
          "name": "deliveryDate",
          "type": "uint256"
        },
        {
          "internalType": "uint256",
          "name": "deliveredDate",
          "type": "uint256"
        }
      ],
      "payable": false,
      "stateMutability": "view",
      "type": "function"
    },
    {
      "constant": false,
      "inputs": [
        {
          "internalType": "string",
          "name": "id",
          "type": "string"
        }
      ],
      "name": "pay",
      "outputs": [],
      "payable": true,
      "stateMutability": "payable",
      "type": "function"
    },
    {
      "constant": false,
      "inputs": [
        {
          "internalType": "string",
          "name": "id",
          "type": "string"
        }
      ],
      "name": "deliver",
      "outputs": [],
      "payable": false,
      "stateMutability": "nonpayable",
      "type": "function"
    },
    {
      "constant": false,
      "inputs": [
        {
          "internalType": "string",
          "name": "id",
          "type": "string"
        }
      ],
      "name": "refund",
      "outputs": [],
      "payable": false,
      "stateMutability": "nonpayable",
      "type": "function"
    }
  ],
  "bytecode": "0x608060405234801561001057600080fd5b50336000806101000a81548173ffffffffffffffffffffffffffffffffffffffff021916908373ffffffffffffffffffffffffffffffffffffffff1602179055506116b2806100606000396000f3fe60806040526004361061004a5760003560e01c80632b66d72e1461004f578063693ec85e1461010a57806391098ee414610201578063c8616da5146102c9578063fe5f2e88146103a5575b600080fd5b6101086004803603602081101561006557600080fd5b810190808035906020019064010000000081111561008257600080fd5b82018360208201111561009457600080fd5b803590602001918460018302840111640100000000831117156100b657600080fd5b91908080601f016020809104026020016040519081016040528093929190818152602001838380828437600081840152601f19601f82011690508083019250505050505050919291929050505061046d565b005b34801561011657600080fd5b506101d06004803603602081101561012d57600080fd5b810190808035906020019064010000000081111561014a57600080fd5b82018360208201111561015c57600080fd5b8035906020019184600183028401116401000000008311171561017e57600080fd5b91908080601f016020809104026020016040519081016040528093929190818152602001838380828437600081840152601f19601f8201169050808301925050505050505091929192905050506108cc565b604051808560ff1660ff16815260200184815260200183815260200182815260200194505050505060405180910390f35b34801561020d57600080fd5b506102c76004803603602081101561022457600080fd5b810190808035906020019064010000000081111561024157600080fd5b82018360208201111561025357600080fd5b8035906020019184600183028401116401000000008311171561027557600080fd5b91908080601f016020809104026020016040519081016040528093929190818152602001838380828437600081840152601f19601f820116905080830192505050505050509192919290505050610af0565b005b3480156102d557600080fd5b506103a3600480360360608110156102ec57600080fd5b810190808035906020019064010000000081111561030957600080fd5b82018360208201111561031b57600080fd5b8035906020019184600183028401116401000000008311171561033d57600080fd5b91908080601f016020809104026020016040519081016040528093929190818152602001838380828437600081840152601f19601f8201169050808301925050505050505091929192908035906020019092919080359060200190929190505050610df5565b005b3480156103b157600080fd5b5061046b600480360360208110156103c857600080fd5b81019080803590602001906401000000008111156103e557600080fd5b8201836020820111156103f757600080fd5b8035906020019184600183028401116401000000008311171561041957600080fd5b91908080601f016020809104026020016040519081016040528093929190818152602001838380828437600081840152601f19601f820116905080830192505050505050509192919290505050610fd7565b005b60006001826040518082805190602001908083835b602083106104a55780518252602082019150602081019050602083039250610482565b6001836020036101000a038019825116818451168082178552505050505050905001915050908152602001604051809103902090506000816004015411610554576040517f08c379a00000000000000000000000000000000000000000000000000000000081526004018080602001828103825260118152602001807f4f726465722069736e277420666f756e6400000000000000000000000000000081525060200191505060405180910390fd5b60006002836040518082805190602001908083835b6020831061058c5780518252602082019150602081019050602083039250610569565b6001836020036101000a03801982511681845116808217855250505050505090500191505090815260200160405180910390209050600081600201541461063b576040517f08c379a00000000000000000000000000000000000000000000000000000000081526004018080602001828103825260178152602001807f546865206f7264657220686173206265656e207061696400000000000000000081525060200191505060405180910390fd5b81600101543414610697576040517f08c379a000000000000000000000000000000000000000000000000000000000815260040180806020018281038252603a815260200180611644603a913960400191505060405180910390fd5b60018260030160006101000a81548160ff021916908360038111156106b857fe5b021790555060405180608001604052808481526020013373ffffffffffffffffffffffffffffffffffffffff1681526020016106f26114f6565b815260200160008152506002846040518082805190602001908083835b60208310610732578051825260208201915060208101905060208303925061070f565b6001836020036101000a038019825116818451168082178552505050505050905001915050908152602001604051809103902060008201518160000190805190602001906107819291906114fe565b5060208201518160010160006101000a81548173ffffffffffffffffffffffffffffffffffffffff021916908373ffffffffffffffffffffffffffffffffffffffff16021790555060408201518160020155606082015181600301559050507ff92264f09d0c6721b3a515bb9ec4f16b3474b4fe0569a295b0de53b65fc43fe983333461080c6114f6565b60405180806020018573ffffffffffffffffffffffffffffffffffffffff1673ffffffffffffffffffffffffffffffffffffffff168152602001848152602001838152602001828103825286818151815260200191508051906020019080838360005b8381101561088a57808201518184015260208101905061086f565b50505050905090810190601f1680156108b75780820380516001836020036101000a031916815260200191505b509550505050505060405180910390a1505050565b6000806000806108da61157e565b6001866040518082805190602001908083835b6020831061091057805182526020820191506020810190506020830392506108ed565b6001836020036101000a03801982511681845116808217855250505050505090500191505090815260200160405180910390206040518060c0016040529081600082018054600181600116156101000203166002900480601f0160208091040260200160405190810160405280929190818152602001828054600181600116156101000203166002900480156109e75780601f106109bc576101008083540402835291602001916109e7565b820191906000526020600020905b8154815290600101906020018083116109ca57829003601f168201915b5050505050815260200160018201548152602001600282015481526020016003820160009054906101000a900460ff166003811115610a2257fe5b6003811115610a2d57fe5b81526020016004820154815260200160058201548152505090506000816080015111610ac1576040517f08c379a00000000000000000000000000000000000000000000000000000000081526004018080602001828103825260118152602001807f4f726465722069736e277420666f756e6400000000000000000000000000000081525060200191505060405180910390fd5b80606001516003811115610ad157fe5b816080015182604001518360a001519450945094509450509193509193565b6000809054906101000a900473ffffffffffffffffffffffffffffffffffffffff1673ffffffffffffffffffffffffffffffffffffffff163373ffffffffffffffffffffffffffffffffffffffff1614610bb2576040517f08c379a000000000000000000000000000000000000000000000000000000000815260040180806020018281038252601b8152602001807f5468652073656e6465722069736e277420617574686f72697a6564000000000081525060200191505060405180910390fd5b60006001826040518082805190602001908083835b60208310610bea5780518252602082019150602081019050602083039250610bc7565b6001836020036101000a038019825116818451168082178552505050505050905001915050908152602001604051809103902090506000816004015411610c99576040517f08c379a00000000000000000000000000000000000000000000000000000000081526004018080602001828103825260118152602001807f4f726465722069736e277420666f756e6400000000000000000000000000000081525060200191505060405180910390fd5b6000816005015414610d13576040517f08c379a000000000000000000000000000000000000000000000000000000000815260040180806020018281038252601c8152602001807f546865206f7264657220686173206265656e2064656c6976657265640000000081525060200191505060405180910390fd5b60028160030160006101000a81548160ff02191690836003811115610d3457fe5b0217905550610d416114f6565b81600501819055507ff338b2eb9060a1665f36842697bea4d2c1331ecd598e3463b201fc6bdecb43028282600501546040518080602001838152602001828103825284818151815260200191508051906020019080838360005b83811015610db6578082015181840152602081019050610d9b565b50505050905090810190601f168015610de35780820380516001836020036101000a031916815260200191505b50935050505060405180910390a15050565b6000809054906101000a900473ffffffffffffffffffffffffffffffffffffffff1673ffffffffffffffffffffffffffffffffffffffff163373ffffffffffffffffffffffffffffffffffffffff1614610eb7576040517f08c379a000000000000000000000000000000000000000000000000000000000815260040180806020018281038252601b8152602001807f5468652073656e6465722069736e277420617574686f72697a6564000000000081525060200191505060405180910390fd5b6040518060c0016040528084815260200183815260200182815260200160006003811115610ee157fe5b8152602001610eee6114f6565b815260200160008152506001846040518082805190602001908083835b60208310610f2e5780518252602082019150602081019050602083039250610f0b565b6001836020036101000a03801982511681845116808217855250505050505090500191505090815260200160405180910390206000820151816000019080519060200190610f7d9291906114fe565b50602082015181600101556040820151816002015560608201518160030160006101000a81548160ff02191690836003811115610fb657fe5b02179055506080820151816004015560a08201518160050155905050505050565b60006001826040518082805190602001908083835b6020831061100f5780518252602082019150602081019050602083039250610fec565b6001836020036101000a0380198251168184511680821785525050505050509050019150509081526020016040518091039020905060008160040154116110be576040517f08c379a00000000000000000000000000000000000000000000000000000000081526004018080602001828103825260118152602001807f4f726465722069736e277420666f756e6400000000000000000000000000000081525060200191505060405180910390fd5b60006002836040518082805190602001908083835b602083106110f657805182526020820191506020810190506020830392506110d3565b6001836020036101000a0380198251168184511680821785525050505050509050019150509081526020016040518091039020905060008160020154116111a5576040517f08c379a000000000000000000000000000000000000000000000000000000000815260040180806020018281038252601a8152602001807f546865206f72646572206861736e2774206265656e207061696400000000000081525060200191505060405180910390fd5b600082600501541461121f576040517f08c379a000000000000000000000000000000000000000000000000000000000815260040180806020018281038252601c8152602001807f546865206f7264657220686173206265656e2064656c6976657265640000000081525060200191505060405180910390fd5b6000816003015414611299576040517f08c379a000000000000000000000000000000000000000000000000000000000815260040180806020018281038252601b8152602001807f546865206f7264657220686173206265656e20726566756e646564000000000081525060200191505060405180910390fd5b3373ffffffffffffffffffffffffffffffffffffffff168160010160009054906101000a900473ffffffffffffffffffffffffffffffffffffffff1673ffffffffffffffffffffffffffffffffffffffff1614611341576040517f08c379a000000000000000000000000000000000000000000000000000000000815260040180806020018281038252603e815260200180611606603e913960400191505060405180910390fd5b816002015461134e6114f6565b116113a4576040517f08c379a00000000000000000000000000000000000000000000000000000000081526004018080602001828103825260218152602001806115e56021913960400191505060405180910390fd5b8060010160009054906101000a900473ffffffffffffffffffffffffffffffffffffffff1673ffffffffffffffffffffffffffffffffffffffff166108fc83600101549081150290604051600060405180830381858888f19350505050158015611412573d6000803e3d6000fd5b5060038260030160006101000a81548160ff0219169083600381111561143457fe5b02179055506114416114f6565b81600301819055507f983d7f80610c725b42b5c557052c0b3eae91b7a5cf0206967fd5f3e5120b836b8382600301546040518080602001838152602001828103825284818151815260200191508051906020019080838360005b838110156114b657808201518184015260208101905061149b565b50505050905090810190601f1680156114e35780820380516001836020036101000a031916815260200191505b50935050505060405180910390a1505050565b600042905090565b828054600181600116156101000203166002900490600052602060002090601f016020900481019282601f1061153f57805160ff191683800117855561156d565b8280016001018555821561156d579182015b8281111561156c578251825591602001919060010190611551565b5b50905061157a91906115bf565b5090565b6040518060c00160405280606081526020016000815260200160008152602001600060038111156115ab57fe5b815260200160008152602001600081525090565b6115e191905b808211156115dd5760008160009055506001016115c5565b5090565b9056fe5468652064656c69766572792064617465206973206e6f74206f76657220796574546865206275796572206164647265737320646f65736e2774206d61746368207468652061646472657373206f6620746865207472616e73616374696f6e546865206f7264657220707269636520646f65736e2774206d61746368207468652076616c7565206f6620746865207472616e73616374696f6ea265627a7a72315820a32ad473af2d56a7a55bb0bab2a3f2749a6d9205728bf940ead4b6c0fdb5b1a264736f6c63430005100032",
  "source": "pragma solidity >=0.4.22 <0.7.0;\n\ncontract Orders {\n    enum Status {Created, Paid, Delivered, Refunded}\n\n    struct Order {\n        string id;\n        uint256 totalPrice;\n        uint256 deliveryDate;\n        Status status;\n        uint256 createdDate;\n        uint256 deliveredDate;\n    }\n\n    struct Payment {\n        string id;\n        address payable buyerAddress;\n        uint256 paidDate;\n        uint256 refundedDate;\n    }\n\n    event OrderPaid(\n        string id,\n        address paidAddress,\n        uint256 paidAmount,\n        uint256 date\n    );\n    event OrderDelivered(string id, uint256 date);\n    event OrderRefunded(string id, uint256 date);\n\n    address owner;\n    mapping(string => Order) orders;\n    mapping(string => Payment) payments;\n\n    modifier onlyOwner {\n        require(msg.sender == owner, \"The sender isn't authorized\");\n        _;\n    }\n\n    constructor() public {\n        owner = msg.sender;\n    }\n\n    function add(\n        string memory id,\n        uint256 totalPrice,\n        uint256 deliveryDate\n    ) public onlyOwner {\n        orders[id] = Order(\n            id,\n            totalPrice,\n            deliveryDate,\n            Status.Created,\n            getTime(),\n            0\n        );\n    }\n\n    function get(string memory id)\n        public\n        view\n        returns (\n            uint8 status,\n            uint256 createdDate,\n            uint256 deliveryDate,\n            uint256 deliveredDate\n        )\n    {\n        Order memory order = orders[id];\n\n        require(order.createdDate > 0, \"Order isn't found\");\n\n        return (\n            uint8(order.status),\n            order.createdDate,\n            order.deliveryDate,\n            order.deliveredDate\n        );\n    }\n\n    function pay(string memory id) public payable {\n        Order storage order = orders[id];\n\n        require(order.createdDate > 0, \"Order isn't found\");\n\n        Payment storage payment = payments[id];\n\n        require(payment.paidDate == 0, \"The order has been paid\");\n\n        require(\n            msg.value == order.totalPrice,\n            \"The order price doesn't match the value of the transaction\"\n        );\n\n        order.status = Status.Paid;\n\n        payments[id] = Payment(id, msg.sender, getTime(), 0);\n\n        emit OrderPaid(id, msg.sender, msg.value, getTime());\n    }\n\n    function deliver(string memory id) public onlyOwner {\n        Order storage order = orders[id];\n\n        require(order.createdDate > 0, \"Order isn't found\");\n\n        require(order.deliveredDate == 0, \"The order has been delivered\");\n\n        order.status = Status.Delivered;\n        order.deliveredDate = getTime();\n\n        emit OrderDelivered(id, order.deliveredDate);\n    }\n\n    function refund(string memory id) public {\n        Order storage order = orders[id];\n\n        require(order.createdDate > 0, \"Order isn't found\");\n\n        Payment storage payment = payments[id];\n\n        require(payment.paidDate > 0, \"The order hasn't been paid\");\n\n        require(order.deliveredDate == 0, \"The order has been delivered\");\n\n        require(payment.refundedDate == 0, \"The order has been refunded\");\n\n        require(\n            payment.buyerAddress == msg.sender,\n            \"The buyer address doesn't match the address of the transaction\"\n        );\n\n        require(\n            uint256(getTime()) > order.deliveryDate,\n            \"The delivery date is not over yet\"\n        );\n\n        payment.buyerAddress.transfer(order.totalPrice);\n\n        order.status = Status.Refunded;\n\n        payment.refundedDate = getTime();\n\n        emit OrderRefunded(id, payment.refundedDate);\n    }\n\n    function getTime() internal view returns (uint256) {\n        return block.timestamp;\n    }\n}\n",
  "sourcePath": "/Users/ahmetkucukoglu/Documents/order-blockchain-app/backend/contracts/Orders.sol",
  "compiler": {
    "name": "solc",
    "version": "0.5.16+commit.9c3226ce.Emscripten.clang"
  },
  "schemaVersion": "3.3.4",
  "updatedAt": "2021-05-14T14:11:26.185Z",
  "networkType": "ethereum",
  "devdoc": {
    "methods": {}
  },
  "userdoc": {
    "methods": {}
  }
}